{
  "contractName": "DappTokenSale",
  "abi": [
    {
      "inputs": [
        {
          "internalType": "contract DappToken",
          "name": "_tokenContract",
          "type": "address"
        },
        {
          "internalType": "uint256",
          "name": "_tokenPrice",
          "type": "uint256"
        }
      ],
      "stateMutability": "nonpayable",
      "type": "constructor"
    },
    {
      "anonymous": false,
      "inputs": [
        {
          "indexed": false,
          "internalType": "address",
          "name": "_buyer",
          "type": "address"
        },
        {
          "indexed": false,
          "internalType": "uint256",
          "name": "_amount",
          "type": "uint256"
        }
      ],
      "name": "Sell",
      "type": "event"
    },
    {
      "inputs": [],
      "name": "tokenContract",
      "outputs": [
        {
          "internalType": "contract DappToken",
          "name": "",
          "type": "address"
        }
      ],
      "stateMutability": "view",
      "type": "function",
      "constant": true
    },
    {
      "inputs": [],
      "name": "tokenPrice",
      "outputs": [
        {
          "internalType": "uint256",
          "name": "",
          "type": "uint256"
        }
      ],
      "stateMutability": "view",
      "type": "function",
      "constant": true
    },
    {
      "inputs": [],
      "name": "tokenSold",
      "outputs": [
        {
          "internalType": "uint256",
          "name": "",
          "type": "uint256"
        }
      ],
      "stateMutability": "view",
      "type": "function",
      "constant": true
    },
    {
      "inputs": [
        {
          "internalType": "uint256",
          "name": "_numberOfTokens",
          "type": "uint256"
        }
      ],
      "name": "buyTokens",
      "outputs": [],
      "stateMutability": "payable",
      "type": "function",
      "payable": true
    },
    {
      "inputs": [],
      "name": "endSale",
      "outputs": [],
      "stateMutability": "nonpayable",
      "type": "function"
    }
  ],
  "bytecode": "0x608060405234801561001057600080fd5b50604051610b0c380380610b0c8339818101604052810190610032919061016c565b336000806101000a81548173ffffffffffffffffffffffffffffffffffffffff021916908373ffffffffffffffffffffffffffffffffffffffff16021790555081600160006101000a81548173ffffffffffffffffffffffffffffffffffffffff021916908373ffffffffffffffffffffffffffffffffffffffff1602179055508060028190555050506101ac565b600080fd5b600073ffffffffffffffffffffffffffffffffffffffff82169050919050565b60006100f1826100c6565b9050919050565b6000610103826100e6565b9050919050565b610113816100f8565b811461011e57600080fd5b50565b6000815190506101308161010a565b92915050565b6000819050919050565b61014981610136565b811461015457600080fd5b50565b60008151905061016681610140565b92915050565b60008060408385031215610183576101826100c1565b5b600061019185828601610121565b92505060206101a285828601610157565b9150509250929050565b610951806101bb6000396000f3fe60806040526004361061004a5760003560e01c80633610724e1461004f578063380d831b1461006b578063519ee19e1461008257806355a373d6146100ad5780637ff9b596146100d8575b600080fd5b61006960048036038101906100649190610595565b610103565b005b34801561007757600080fd5b506100806102de565b005b34801561008e57600080fd5b506100976104f1565b6040516100a491906105d1565b60405180910390f35b3480156100b957600080fd5b506100c26104f7565b6040516100cf919061066b565b60405180910390f35b3480156100e457600080fd5b506100ed61051d565b6040516100fa91906105d1565b60405180910390f35b61010f81600254610523565b341461011a57600080fd5b80600160009054906101000a900473ffffffffffffffffffffffffffffffffffffffff1673ffffffffffffffffffffffffffffffffffffffff166370a08231306040518263ffffffff1660e01b815260040161017691906106a7565b60206040518083038186803b15801561018e57600080fd5b505afa1580156101a2573d6000803e3d6000fd5b505050506040513d601f19601f820116820180604052508101906101c691906106d7565b10156101d157600080fd5b600160009054906101000a900473ffffffffffffffffffffffffffffffffffffffff1673ffffffffffffffffffffffffffffffffffffffff1663a9059cbb33836040518363ffffffff1660e01b815260040161022e929190610704565b602060405180830381600087803b15801561024857600080fd5b505af115801561025c573d6000803e3d6000fd5b505050506040513d601f19601f820116820180604052508101906102809190610765565b61028957600080fd5b806003600082825461029b91906107c1565b925050819055507f5e5e995ce3133561afceaa51a9a154d5db228cd7525d34df5185582c18d3df0933826040516102d3929190610838565b60405180910390a150565b60008054906101000a900473ffffffffffffffffffffffffffffffffffffffff1673ffffffffffffffffffffffffffffffffffffffff163373ffffffffffffffffffffffffffffffffffffffff161461033657600080fd5b600160009054906101000a900473ffffffffffffffffffffffffffffffffffffffff1673ffffffffffffffffffffffffffffffffffffffff1663a9059cbb60008054906101000a900473ffffffffffffffffffffffffffffffffffffffff16600160009054906101000a900473ffffffffffffffffffffffffffffffffffffffff1673ffffffffffffffffffffffffffffffffffffffff166370a08231306040518263ffffffff1660e01b81526004016103f091906106a7565b60206040518083038186803b15801561040857600080fd5b505afa15801561041c573d6000803e3d6000fd5b505050506040513d601f19601f8201168201806040525081019061044091906106d7565b6040518363ffffffff1660e01b815260040161045d929190610838565b602060405180830381600087803b15801561047757600080fd5b505af115801561048b573d6000803e3d6000fd5b505050506040513d601f19601f820116820180604052508101906104af9190610765565b6104b857600080fd5b60008054906101000a900473ffffffffffffffffffffffffffffffffffffffff1673ffffffffffffffffffffffffffffffffffffffff16ff5b60035481565b600160009054906101000a900473ffffffffffffffffffffffffffffffffffffffff1681565b60025481565b60008082148061054b57508282838561053c9190610861565b92508261054991906108ea565b145b61055457600080fd5b92915050565b600080fd5b6000819050919050565b6105728161055f565b811461057d57600080fd5b50565b60008135905061058f81610569565b92915050565b6000602082840312156105ab576105aa61055a565b5b60006105b984828501610580565b91505092915050565b6105cb8161055f565b82525050565b60006020820190506105e660008301846105c2565b92915050565b600073ffffffffffffffffffffffffffffffffffffffff82169050919050565b6000819050919050565b600061063161062c610627846105ec565b61060c565b6105ec565b9050919050565b600061064382610616565b9050919050565b600061065582610638565b9050919050565b6106658161064a565b82525050565b6000602082019050610680600083018461065c565b92915050565b6000610691826105ec565b9050919050565b6106a181610686565b82525050565b60006020820190506106bc6000830184610698565b92915050565b6000815190506106d181610569565b92915050565b6000602082840312156106ed576106ec61055a565b5b60006106fb848285016106c2565b91505092915050565b60006040820190506107196000830185610698565b61072660208301846105c2565b9392505050565b60008115159050919050565b6107428161072d565b811461074d57600080fd5b50565b60008151905061075f81610739565b92915050565b60006020828403121561077b5761077a61055a565b5b600061078984828501610750565b91505092915050565b7f4e487b7100000000000000000000000000000000000000000000000000000000600052601160045260246000fd5b60006107cc8261055f565b91506107d78361055f565b9250827fffffffffffffffffffffffffffffffffffffffffffffffffffffffffffffffff0382111561080c5761080b610792565b5b828201905092915050565b600061082282610638565b9050919050565b61083281610817565b82525050565b600060408201905061084d6000830185610829565b61085a60208301846105c2565b9392505050565b600061086c8261055f565b91506108778361055f565b9250817fffffffffffffffffffffffffffffffffffffffffffffffffffffffffffffffff04831182151516156108b0576108af610792565b5b828202905092915050565b7f4e487b7100000000000000000000000000000000000000000000000000000000600052601260045260246000fd5b60006108f58261055f565b91506109008361055f565b9250826109105761090f6108bb565b5b82820490509291505056fea2646970667358221220e9ae29941657b5d9d0f3b680dfe6de17fa116a3d8df2691ad410688a08b48c6564736f6c63430008090033",
  "immutableReferences": {},
  "source": "pragma solidity >=0.4.22 <0.9.0;\n\n\nimport \"./DappToken.sol\";\n\ncontract DappTokenSale {\n    address payable admin;\n    DappToken public tokenContract;\n    uint256 public tokenPrice;\n    uint256 public tokenSold;\n\n    event Sell(\n        address _buyer,\n        uint256 _amount\n    );\n\n    constructor(DappToken _tokenContract, uint256 _tokenPrice) public{\n        admin = payable(msg.sender);\n        tokenContract = _tokenContract;\n        tokenPrice = _tokenPrice;\n    }\n\n\n    //multuply\n    function multiply(uint x, uint y) internal pure returns(uint z){\n        require(y == 0 || (z = x * y)/y == x);\n    }\n\n    //BuyTokens\n    function buyTokens(uint256 _numberOfTokens) public payable{\n        require(msg.value == multiply(_numberOfTokens , tokenPrice));\n        require(tokenContract.balanceOf(address(this)) >= _numberOfTokens);\n        require(tokenContract.transfer(msg.sender, _numberOfTokens));\n\n        //Keep track of the number of token sold\n        tokenSold += _numberOfTokens;\n\n        //Trigger a sell event\n        emit Sell(payable(msg.sender),_numberOfTokens);\n    \n    }\n\n\n    //End Sale\n    function endSale() public{\n        //Require admin\n        require(payable(msg.sender) == admin);\n        require(tokenContract.transfer(admin,tokenContract.balanceOf(address(this))));\n        //Destroy contract\n        selfdestruct(admin);\n    }\n}",
  "sourcePath": "/Users/oyindamolaakogun/Documents/Github_projects/BlockChain Development/tokenSale/contracts/DappTokenSale.sol",
  "compiler": {
    "name": "solc",
    "version": "0.8.9+commit.e5eed63a.Emscripten.clang"
  },
  "schemaVersion": "3.4.3",
  "updatedAt": "2021-10-31T11:50:55.423Z",
  "networkType": "ethereum",
  "devdoc": {
    "kind": "dev",
    "methods": {},
    "version": 1
  },
  "userdoc": {
    "kind": "user",
    "methods": {},
    "version": 1
  }
}